:020000040000FA
:060000005EEF1FF012008C
:061000005EEF1FF012007C
:06100800A4EF0CF0120041
:0610180009EF0DF01200CB
:06102A000300123F00006C
:101030003A0F000002000000011600003C0F000003
:1010400001000000083F0000730000000A000000DB
:1010500092869282978C978A9A9E9A9C1200D9CFF8
:10106000E6FFE1CFD9FFE652DF6AFE0EDB50030A4E
:1010700001E177D0010A4DE0020A23E0010A02E013
:10108000000E9DD080B694D0F00EE66EE6681C0E81
:10109000E66E410EE66E3CEC1EF0E552E552E5527E
:1010A000E552888C0C0EE66E6CEC1FF0E55281EC7C
:1010B0001FF077EC1FF00009FCE1C450DF6E889C44
:1010C0007DD080B275D0FC0EE66EE6680C0EE66E42
:1010D000410EE66E3CEC1EF0E552E552E552E5525B
:1010E000888C0C0EE66E6CEC1FF0E55281EC1FF064
:1010F00077EC1FF00009FCE1C450DF6E889C320ED3
:10110000E66E6CEC1FF0E5527DEC1FF080A256D02D
:101110004FD085BC4DD0E66AF00EE66E5C0EE66EF2
:10112000410EE66E3CEC1EF0E552E552E552E5520A
:10113000888C0C0EE66E6CEC1FF0E55281EC1FF013
:1011400077EC1FF00009FCE1C450DF6E889C320E82
:10115000E66E6CEC1FF0E5527DEC1FF085AC2ED0F6
:1011600027D085BA25D0E66AF80EE66E540EE66EF4
:10117000410EE66E3CEC1EF0E552E552E552E552BA
:10118000888C0C0EE66E6CEC1FF0E55281EC1FF0C3
:1011900077EC1FF00009FCE1C450DF6E889C320E32
:1011A000E66E6CEC1FF0E5527DEC1FF085AA06D0D0
:1011B000320EE66E6CEC1FF0E552DF6ADF50E5524E
:1011C000E552E7CFD9FF1200D9CFE6FFE1CFD9FF33
:1011D000E652DF6AC088C168C268C098FE0EDB5064
:1011E000030A4AE0010A32E0020A1AE0010A02E0B8
:1011F000000E5ED080B655D0888C0C0EE66E6CEC7E
:101200001FF0E5528050080B01E0010EDF6E889C54
:10121000320EE66E6CEC1FF0E55280A648D041D04D
:1012200080B23FD0888C0C0EE66E6CEC1FF0E5525D
:101230008050020B01E0010EDF6E889C320EE66EDC
:101240006CEC1FF0E55280A232D02BD085BC29D0A7
:10125000888C0C0EE66E6CEC1FF0E5528550400B4E
:1012600001E0010EDF6E889C320EE66E6CEC1FF022
:10127000E55285AC1CD015D085BA13D0888C0C0EE5
:10128000E66E6CEC1FF0E5528550200B01E0010E7C
:10129000DF6E889C320EE66E6CEC1FF0E55285AA7C
:1012A00006D0320EE66E6CEC1FF0E552DF6ADF50BE
:0A12B000E552E552E7CFD9FF120026
:0612BA0092801200D9CF62
:1012C000E6FFE1CFD9FF050EE126DF6A2D0EF36EB2
:1012D000030EF3CFDBFF04EC16F0E76E040EE7CF4E
:1012E000DBFFFE0EE66EE668040EE66E410EE66E6D
:1012F0003CEC1EF0E552E552E552E55281EC1FF060
:1013000077EC1FF0000901E0FBD7040EDB0451E18C
:10131000C450E66ED950010FE96EDACFEAFFE5520C
:10132000E750EE6EED6A010EDBCF14F0020EDBCF5C
:1013300015F0030EDB50166E176A1450165C15502C
:1013400017580CE2030EDB50E66ED950010FE96E20
:10135000DACFEAFFE552E750EE6EED6A640E086EF2
:10136000096A010EDBCF0DF0020EDBCF0EF0A7EC09
:101370001EF0DE5206C0DEFF07C0DDFFDD52030EA9
:10138000DB50146E156A010EDBCF08F0020EDBCFC6
:1013900009F014C00DF015C00EF028EC1FF0DE525D
:1013A00008C0DEFF09C0DDFFDD52010EDB50DF6E3D
:1013B00004D0C450FE0BE842DF6E7DEC1FF000004D
:1013C000DF5000D0146E050EE15C02E2E16AE552E6
:0C13D000E16E1450E552E7CFD9FF120087
:0413DC00D9CFE6FF80
:1013E000E1CFD9FF020EE126DE6ADD6AE66AC00EB1
:1013F000E66E6C0EE66E410EE66E3CEC1EF0E552BB
:10140000E552E552E55281EC1FF077EC1FF0000940
:10141000FCE1C450DE6EDD6ADECF14F0DDCF15F0E6
:10142000450E145E000E155A14C0DEFF15C0DDFF18
:10143000DECF14F0DDCF15F0153424E2145000088F
:10144000000E15541FE2DECF14F0DDCF15F00A0EAA
:101450001502F3CF15F01402F3CF14F0F450152653
:10146000170E0D6E0E6AF3CF08F015C009F081EC6F
:101470001EF008C014F009C015F008C0DEFF09C056
:10148000DDFF02D0DE6ADD6A7DEC1FF0DF50146EF6
:10149000020EE15C02E2E16AE552E16E1450E552AF
:0614A000E7CFD9FF1200A6
:0A14A6009284928A95921200D9CF29
:1014B000E6FFE1CFD9FFE652DF6AFE0EDB5007E020
:1014C000010A12E1F80EE66EE668140E04D0E00E92
:1014D000E66EE668240EE66E410EE66E3CEC1EF00B
:1014E000E552E552E552E55283825A0EE66E6CEC07
:1014F0001FF0E55281EC1FF077EC1FF00009FCE1D2
:10150000C450DF6E83927DEC1FF0DF50E552E55250
:10151000E7CFD9FF1200D9CFE6FFE1CFD9FFE652DE
:10152000DF6AC088C168C268C09883825A0EE66EBE
:101530006CEC1FF0E552FE0EDB5008E0010A0BE1F7
:101540008050040B01E0010EDF6E05D08050200BAF
:1015500001E0010EDF6E8392DF50E552E552E7CFE6
:04156000D9FF12009D
:0C156400969A949E939A939C818C818AA5
:10157000849A828E1200829E1200828E1200829EB7
:10158000050EE66E11EC1FF0E552828E050EE66E3A
:1015900011EC1FF0E5521200848A1200849A1200A6
:1015A000849A050EE66E11EC1FF0E552848A050E52
:1015B000E66E11EC1FF0E5521200819A1200818A4A
:1015C0001200819A050EE66E11EC1FF0E552818A39
:1015D000050EE66E11EC1FF0E5521200819C120020
:1015E000818C1200819C050EE66E11EC1FF0E55215
:0E15F000818C050EE66E11EC1FF0E552120024
:0215FE001200D9
:0116000003E6
:0116010001E7
:0E160200DBEC19F017EC1BF0020EE66E000E8A
:10161000F66E160EF76E0800F550E66EEEEC19F059
:10162000E552E552E7EC19F0DDEC1AF0F3EC1EF0B0
:1016300007EF16F009CF73F00ECF74F00ACF75F0F4
:101640000BCF76F00CCF77F00DCF78F00FCF7BF08B
:101650000F0108390F0B0E081AE1006B00017651DB
:1016600005E0010E796F76C07AF009D0775104E079
:10167000796B77C07AF003D0010E796F7A6B745171
:101680007325640804E2640ED8807355746FE10E0C
:101690000F01085D07E17AC0E6FF79C0E6FF010EA1
:1016A000E66E08D0E20E085D08E17AC0E6FF79C078
:1016B000E6FFE66A73C0E6FF62D0E30E085D09E16B
:1016C0007AC0E6FF79C0E6FFE66A74C0E6FF010E65
:1016D0000BD0E40E085D0AE17AC0E6FF79C0E6FFB0
:1016E000010EE66E74C0E6FFE66E15D0E50E085DED
:1016F00006E17AC0E6FF79C0E6FFE66A09D0E60EA9
:10170000085D0EE17AC0E6FF79C0E6FF010EE66EE5
:1017100074C0E6FFE66A73C0E6FFF9EC16F052D03B
:10172000E70E085D02E164EF17F0E90E085D08E1DD
:1017300075C0E6FFE66A010EE66E78C0E6FF0AD0E5
:10174000E80E085D0BE175C0E6FFE66AE66A78C060
:10175000E6FF010EE66E73C0E6FF32D0EA0E085DCA
:1017600005E1E66A010EE66EE66E07D0EB0E085D57
:101770000AE1E66A010EE66EE66A320EE66E0DECEE
:1017800016F0E552A0D0EC0E085D08E1190EE66EE9
:10179000E66AE66A78C0E6FF010E0FD0ED0E085D3E
:1017A00002E1190E04D0EE0E085D11E1320EE66E74
:1017B000E66A010EE66E78C0E6FFE66E320EE66E71
:1017C0009AEC16F0146E060EE15E14501200EF0E45
:1017D000085D05E1020EE66E6FEC17F076D0A00E04
:1017E000085D02E1BBEF0AF0A10E085D02E1CCEF5B
:1017F0000AF0A20E085D02E1EEEF0AF0A30E085D0A
:101800003DE0A40E085D02E1BDEF0AF0A50E085D03
:1018100002E1CEEF0AF0A60E085D01E178D0A70E36
:10182000085D37E0A80E085D06E1050E035D01E3E3
:101830008AD0032B1200A90E085D06E1050E045D97
:1018400001E381D0042B1200AA0E085D06E1050E0B
:10185000055D01E378D0052B1200AB0E085D05E1B4
:10186000050E065D70E2062B1200AC0E085D08E165
:10187000BBEC0AF0CCEC0AF0EEEC0AF0DDEF0AF07B
:10188000AD0E085D08E1BDEC0AF0CEEC0AF0F0EC1C
:101890000AF0DFEF0AF0AE0E085D05E1050E075D08
:1018A00052E2072B1200C00E085D03E1010EE66E46
:1018B00005D0C10E085D0BE1E66A010EE66E7BC045
:1018C000E6FFF8EC1DF0E552E552E5521200C20EBB
:1018D000085D02E1010E04D0C30E085D03E1020EB3
:1018E000016F1200B10E085D14E10001320E736F3A
:1018F000140E746F756F640E766F140E776F786BBD
:10190000796BBDEC0AF0CEEC0AF0DFEC0AF0F0EFF8
:101910000AF0910E085D02E1010E0ED0920E085DF4
:1019200002E1020E09D0930E085D02E1030E04D01D
:10193000940E085D03E1040E006F1200950E085D21
:1019400002E1050E006F1200DACFE4FFE2CFDAFF0A
:10195000E9CFE4FFEACFE4FFF6CFE4FFF7CFE4FFFF
:10196000F5CFE4FFF3CFE4FFF4CFE4FFFACFE4FFD9
:1019700000EE00F0140EE80403E3EECFE4FFFBD723
:1019800000EE14F0040EE80403E3EECFE4FFFBD70F
:10199000E652F29EF2A403D0F294FF0016D0F2A217
:1019A00014D0F292F294080EE66E0F0EE66E100E50
:1019B000E66E0F0EE66E83EC1CF0E552E552E55242
:1019C000E552020802E036DEEED7E55200EE17F0EF
:1019D000040EE80403E3E5CFEDFFFBD700EE13F0C0
:1019E000140EE80403E3E5CFEDFFFBD7E5CFFAFFE4
:1019F000E5CFF4FFE5CFF3FFE5CFF5FFE5CFF7FF48
:101A0000E5CFF6FFE5CFEAFFE5CFE9FFE5CFDAFF67
:101A10001100D8CFE4FFE0CFE4FFE46EDACFE4FFBB
:101A2000E652E552E5CFDAFFE550E5CFE0FFE5CF3E
:101A3000D8FF1000D9CFE6FFE1CFD9FF0A0EE1268B
:101A4000020EDB6A030EDB6A010EF36E040EF3CFA7
:101A5000DBFF050EDB6A060EDB6A070EDB6A080E8B
:101A6000DB6A090EDB6A0F01016B026B036B046B0F
:101A7000056B066B076BC5DD51D95DD962D9030EC5
:101A8000DB6ADF6ADFCF14F0050EE76E1418E8AEEC
:101A900002D0E73402D0E750145C29E2C7EC1EF014
:101AA000E76E020EE7CFDBFFDBCF14F0030EDB5057
:101AB000D880145406E2020EDB50E76E030EE7CF27
:101AC000DBFF0A0EE66E3EEC1FF0E5520F0100054B
:101AD00003E1F29E010E05D0020E005D06E1F29ECA
:101AE000020EE66E06DAE552F28EDF2ACBD7010E41
:101AF000E66E2FEC08F0E5520F01116FE66A2FEC4D
:101B000008F0E5520F01126F020EE66E2FEC08F09E
:101B1000E5520F01136F030EE66E2FEC08F0E5524D
:101B20000F01146F010EE66E57EC0AF0E5520F013B
:101B3000156FE66A57EC0AF0E5520F01166F8450F4
:101B4000800B01E0010E176FB50E186F110EE66ED7
:101B50000F0EE66E010EE66E49EC1BF0E552E55203
:101B6000E552EFD8E66A40EC11F0E5520F01116F33
:101B7000010EE66E40EC11F0E5520F01126F020EFD
:101B8000E66E40EC11F0E5520F01136F060EE66EA3
:101B900083EC17F0E552F3CFE9FFF4CFEAFF010E33
:101BA000E926000EEA22EFCF14FF060EE66E83EC64
:101BB00017F0E552F3CFE9FFF4CFEAFFEFCF15FFBF
:101BC0005FEC09F00F01166F030EDBCF17FFB60EA7
:101BD000186F110EE66E0F0EE66E010EE66E49EC02
:101BE0001BF0E552E552E552ACD8050E0F01035D3E
:101BF00001E3036B050E045D01E3046B050E055D57
:101C000001E3056B050E065D01E3066B050E075D3E
:101C100001E3076B0351000807E2F29E92D8BFEC84
:101C20000AF00F010307F28E0451000809E2F29E48
:101C300088D8D0EC0AF0CEEC0AF00F010407F28E3F
:101C40000551000807E2F29E7CD8F2EC0AF00F0181
:101C50000507F28E0651000807E2F29E72D8E1EC09
:101C60000AF00F010607F28E075100081AE2F29EF1
:101C700068D8BBEC0AF0CCEC0AF0EEEC0AF0DDEC34
:101C80000AF0050EE66E11EC1FF0E552BDEC0AF00D
:101C9000CEEC0AF0F0EC0AF0DFEC0AF00F010707D7
:101CA000F28E01050FE1F29E0251060803E2016B7C
:101CB000026B06D002CFE6FF61D8E5520F01022B7E
:101CC000F28E11D0020E015D0EE1F29E0251030868
:101CD00003E2016B026B06D002CFE6FFB8D8E552F3
:101CE0000F01022BF28E000501E1C8D6020E005D45
:101CF00001E1C4D6030E005D03E1F29E96D90CD03B
:101D0000040E005D03E1F29ED1D906D0050E005D00
:101D100001E0B4D6F29E4EDAF28EB0D6D76AD66A19
:101D2000F294D59CD59AD596D594D592D590F18438
:101D3000F29AF28E1200D58EF28A1200D59EF29A95
:101D40001200D76AD66A1200D9CFE6FFE1CFD9FFD9
:101D5000E652D76AD66ADF6AFE0EDB50DF5C09E224
:101D6000050EE66E11EC1FF0E552D76AD66ADF2A3F
:101D7000F3D7E552E552E7CFD9FF1200D9CFE6FFFE
:101D8000E1CFD9FFDEDFFE0EDB50060A3BE0020AA0
:101D900027E0070A13E0010A0BE0030A03E0010A47
:101DA00052E11ED0010EE66E020EE66E470E1DD009
:101DB000010EE66E020EE66E3E0E17D0010EE66EC6
:101DC000030EE66E3B0EE66EF8EC1DF0E552E552B2
:101DD000E5520A0EE66E11EC1FF0E552B2DF0BD0B1
:101DE000010EE66E020EE66E500EE66EF8EC1DF089
:101DF000E552E552E5520A0EE66E11EC1FF0E5528F
:101E0000A0DF21D0010EE66E030EE66E3B0EE66EFD
:101E1000F8EC1DF0E552E552E5520A0EE66E11ECC3
:101E20001FF0E5528EDF0A0EE66E11EC1FF0E55250
:101E300088DFE66A010EE66E5D0EE66EF8EC1DF0D8
:101E4000E552E552E552E552E7CFD9FF1200D9CF6E
:101E5000E6FFE1CFD9FF75DFFE0EDB50030A24E079
:101E6000010A10E0030A08E0010A3FE1010EE66EF4
:101E7000020EE66E5D0E0BD0010EE66E020EE66EF1
:101E8000630E05D0010EE66E020EE66E690EE66E7A
:101E9000F8EC1DF0E552E552E5520A0EE66E11EC43
:101EA0001FF0E5524EDF21D0010EE66E030EE66E06
:101EB0006F0EE66EF8EC1DF0E552E552E5520A0EA3
:101EC000E66E11EC1FF0E5523CDF0A0EE66E11ECF7
:101ED0001FF0E55236DFE66A010EE66E5D0EE66E35
:101EE000F8EC1DF0E552E552E552E552E7CFD9FF97
:101EF0001200D9CFE6FFE1CFD9FFE65273C0DFFF72
:101F0000FE0EDB0435E1E66A8BEC0AF0E5520009CF
:101F100007E1010EE66E8BEC0AF0E552010839E0AC
:101F2000E66A8BEC0AF0E552000907E1010EE66E65
:101F30008BEC0AF0E552000965E0E66A8BEC0AF0EA
:101F4000E552010807E1010EE66E8BEC0AF0E5525E
:101F5000010846E0E66A8BEC0AF0E552010860E110
:101F6000010EE66E8BEC0AF0E552000959E138D01B
:101F7000FE0EDB50020854E1E66A8BEC0AF0E552F3
:101F8000010814E1010EE66E8BEC0AF0E55200093F
:101F90000DE1E66A010EE66EE66EDFCFE6FF0DECC0
:101FA00016F0E552E552E552E5523AD0E66A8BEC7E
:101FB0000AF0E552010807E1010EE66E8BEC0AF02B
:101FC000E55201081FE0E66A8BEC0AF0E5520009D1
:101FD0000CE1010EE66E8BEC0AF0E552000905E11A
:101FE000E66A010EE66EE66A11D0E66A8BEC0AF04C
:101FF000E552000915E1010EE66E8BEC0AF0E552A0
:1020000001080EE1E66A010EE66EE66EE66AE66E2D
:10201000DFCFE6FF9AEC16F0146E060EE15E145068
:10202000E552E552E7CFD9FF1200D9CFE6FFE1CF65
:10203000D9FF020EE12673C0DFFFDE520A0EDD6E0D
:10204000E66A010EE66EE66EDFCFE6FF0DEC16F0F7
:10205000E552E552E552E552E66A8BEC0AF0E552AC
:10206000010807E0010EE66E8BEC0AF0E55201086C
:1020700013E1280EE66EE66A010EE66EE66EE66E87
:10208000DFCFE6FF9AEC16F0146E060EE15E1450F8
:102090000E0EE66E59DEE552020EE15C02E2E16AE6
:1020A000E552E16EE552E7CFD9FF1200D9CFE6FF46
:1020B000E1CFD9FF020EE12673C0DFFFDE520A0E28
:1020C000DD6EE66A010EE66EE66EDFCFE6FF0DEC32
:1020D00016F0E552E552E552E552E66A8BEC0AF05D
:1020E000E552010807E0010EE66E8BEC0AF0E552BE
:1020F000010811E1280EE66EE66A010EE66EE66E54
:10210000E66EDFCFE6FF9AEC16F0146E060EE15E87
:1021100014500E0E42D0020EE66E2FEC08F0E5527F
:10212000146E010EDB50D88014543AE3020EE66EB2
:102130002FEC08F0E552156E010EDB50D8801554D7
:102140002FE3030EE66E2FEC08F0E552146E010E3D
:10215000DB50D880145406E2040EE66EE66A010EE7
:10216000E66E10D0010EE66E2FEC08F0E552146E0C
:10217000010EDB50D880145413E2040EE66EE66ABA
:10218000E66A010EE66EE66EDFCFE6FF9AEC16F029
:10219000146E060EE15E1450040EE66ED5DDE552B7
:1021A000020EE15C02E2E16AE552E16EE552E7CF40
:1021B000D9FF1200D9CFE6FFE1CFD9FF020EE12609
:1021C00073C0DFFFDE52320EDD6EE66A010EE66E90
:1021D000E66EDFCFE6FF0DEC16F0E552E552E55274
:1021E000E552020EE66E2FEC08F0E552146E010E79
:1021F000DB50D88014543AE3020EE66E2FEC08F060
:10220000E552156E010EDB50D88015542FE3030EF6
:10221000E66E2FEC08F0E552146E010EDB50D8800C
:10222000145406E2040EE66EE66A010EE66E10D065
:10223000010EE66E2FEC08F0E552146E010EDB5035
:10224000D880145413E2040EE66EE66AE66A010EC4
:10225000E66EE66EDFCFE6FF9AEC16F0146E060E21
:10226000E15E1450040EE66E6FDDE552020EE15C95
:1022700002E2E16AE552E16EE552E7CFD9FF1200D2
:10228000D9CFE6FFE1CFD9FF060EE126DF6A010EC6
:10229000DB6A020EDB6A030EDB68040EDB68050EE8
:1022A000DB6A0F013C51010A66E0010A01E097D0A8
:1022B000DE52160EDD6E050EF36E020EF3CFDBFF5F
:1022C000DBCFE6FF010EDBCFE6FF3BD9E552E5525F
:1022D000030EDB50000821E2040EDB06DB50000891
:1022E00002E281A2F9D781B218D0030EDB06DB50DF
:1022F00011E1DE52160EDD6E430EF36E020EF3CFC9
:10230000DBFFDBCFE6FF010EDBCFE6FF1AD9E5529C
:10231000E55242D0040EDB68DBD7FE0EDB50020A2A
:102320000AE0030A05E0010A15E1DE52060E05D0B7
:10233000DE52070E02D0DE52080EDD6E010EDBCF3C
:10234000E6FF7AD9E552E76E050EE7CFDBFFDB50FB
:10235000800ADF6EDE52160EDD6E430EF36E020E45
:10236000F3CFDBFFDBCFE6FF010EDBCFE6FFE9D8E3
:10237000E552E55234D0030EDB50000812E2040EA1
:10238000DB06DB50000802E281A2F9D781B209D056
:10239000030EDB06DB5002E1000E22D0040EDB68E8
:1023A000EAD7FE0EDB50020A0BE0030A06E0010A40
:1023B00016E1DE52010EDD6E07D0DE52030E02D0B2
:1023C000DE52050EDD6E010EDBCFE6FF35D9E5529C
:1023D000E76E050EE7CFDBFFDB50800ADF6EDF50D4
:1023E000146E060EE15C02E2E16AE552E16E145001
:1023F000E552E7CFD9FF1200D9CFE6FFE1CFD9FFF1
:10240000040EE126DF6A010EDB6A020EDB6A030EB0
:10241000DB6A0F013C51010A54E0010A01E083D05C
:102420000A0EDF6EDFCFE6FF07D9E552E76E030E37
:10243000E7CFDBFFDB50030BE76E010EE7CFDBFFDF
:10244000DB50030804E0010EDB50020807E1010E37
:10245000DB50020BE76E010EE7CFDBFF170EDF6EDE
:10246000030EF36E020EF3CFDBFFDBCFE6FFDFCF11
:10247000E6FF67D8E552E552170EDF6E020EDB6A03
:10248000DBCFE6FFDFCFE6FF5CD8E552E552050E75
:10249000E66E11EC1FF0E552050EE66E11EC1FF032
:1024A000E552050EE66E11EC1FF0E552050EE66EE4
:1024B00011EC1FF0E552050EE66E11EC1FF0E5522F
:1024C00032D01F0E6B14FDE1040E6D14FAE16B8027
:1024D0001F0E6B14FDE1040E6D14FAE1220EDF6E87
:1024E000DFCFE6FFA9D8E552E76E030EE7CFDBFFAB
:1024F000DB50080BE76E010EE7CFDBFFDB5004E19A
:10250000DE52010EDD6E02D0010EDB6A1F0E6B146F
:10251000FDE1040E6D14FAE16B841F0E6B14FDE1F6
:10252000040E6D14FAE1010EDB50146E040EE15C32
:1025300002E2E16AE552E16E1450E552E7CFD9FFBD
:102540001200D9CFE6FFE1CFD9FF0F013C51010ABC
:1025500022E0010A41E1959E839E5A0EE66E6CECE4
:102560001FF0E552FE0EDB50E82400017D6F800E67
:102570007D117D6FFD0EDBCF7EF07DC06FFF6DA006
:10258000FED76FCF80F07EC06FFF6DA0FED76FCFFC
:102590007FF0838E21D01F0E6B14FDE1040E6D14AD
:1025A000FAE1380E6F6E1F0E6B14FDE1040E6D1410
:1025B000FAE1FE0EDB506F6E1F0E6B14FDE1040E90
:1025C0006D14FAE1FD0EDB506F6E6B8C1F0E6B14F9
:1025D000FDE1040E6D14FAE1E552E7CFD9FF1200D8
:1025E000D9CFE6FFE1CFD9FFE6521F0E6B14FDE114
:1025F000040E6D14FAE16B801F0E6B14FDE1040EE6
:102600006D14FAE10D0EE66E17D8E552DF6E6B849D
:102610001F0E6B14FDE1040E6D14FAE12A0EDF5C4F
:1026200004E10F01010E3C6F02D00F013C6BE5523B
:10263000E552E7CFD9FF1200D9CFE6FFE1CFD9FFAE
:102640000F013C51010A1FE0010A64E1959E839E3F
:102650005A0EE66E6CEC1FF0E552FE0EDB50E824DD
:102660000001816F7F0E8115816F826B6F6E6DA08F
:10267000FED76FCF84F082C06FFF6DA0FED76FCF03
:1026800083F0838E47D01F0E6B14FDE1040E6D1492
:10269000FAE16B801F0E6B14FDE1040E6D14FAE17C
:1026A000380E6F6E6DB0FED71F0E6B14FDE1040E79
:1026B0006D14FAE1FE0EDB506F6E6DB0FED71F0E8B
:1026C0006B14FDE1040E6D14FAE16B821F0E6B14A6
:1026D000FDE1040E6D14FAE1390E6F6E1F0E6B14DE
:1026E000FDE1040E6D14FAE16B861F0E6B14FDE123
:1026F000040E6D14FAE16FCF83F01F0E6B14FDE131
:10270000040E6D14FAE16B841F0E6B14FDE1040ED0
:102710006D14FAE100018351E552E7CFD9FF1200B1
:10272000D9CFE6FFE1CFD9FF020EE126DF6A010E25
:10273000DB6A958C958A6D6A280E6C6E6B6A6E6A80
:102740004FDF0F013C51010A5BE0010A01E04DD26D
:10275000958A9598959C959EC00E6D6E6B6A200E1D
:102760006C6E160EDF6EDE52430EDD6E010EDBCF99
:10277000E6FFDFCFE6FFE5DEE552E5521B0EDF6E3A
:10278000DE52700EDD6E010EDBCFE6FFDFCFE6FF1F
:10279000D8DEE552E5521C0EDF6EDE527F0EDD6E96
:1027A000010EDBCFE6FFDFCFE6FFCBDEE552E552E1
:1027B0001D0EDF6EDE52040EDD6E010EDBCFE6FF76
:1027C000DFCFE6FFBEDEE552E5521E0EDF6EDE52C3
:1027D0007F0EDD6E010EDBCFE6FFDFCFE6FFB1DE61
:1027E000E552E552180EDF6EDE52040EDD6E010E6C
:1027F000DBCFE6FFDFCFE6FFA4DEE552E552F5D101
:102800001F0E6B14FDE1040E6D14FAE16B801F0EB8
:102810006B14FDE1040E6D14FAE1DE527F0EDD6EE5
:10282000210EDF6E010EDBCFE6FFDFCFE6FF89DE94
:10283000E552E5521F0E6B14FDE1040E6D14FAE132
:102840006B841F0E6B14FDE1040E6D14FAE11F0E74
:102850006B14FDE1040E6D14FAE16B801F0E6B1416
:10286000FDE1040E6D14FAE1DE52200EDD6E230E42
:10287000DF6E010EDBCFE6FFDFCFE6FF62DEE55263
:10288000E5521F0E6B14FDE1040E6D14FAE16B842A
:102890001F0E6B14FDE1040E6D14FAE11F0E6B1494
:1028A000FDE1040E6D14FAE16B801F0E6B14FDE167
:1028B000040E6D14FAE1DE52200EDD6E240EDF6E82
:1028C000010EDBCFE6FFDFCFE6FF3BDEE552E55250
:1028D0001F0E6B14FDE1040E6D14FAE16B841F0EE4
:1028E0006B14FDE1040E6D14FAE11F0E6B14FDE193
:1028F000040E6D14FAE16B801F0E6B14FDE1040EE3
:102900006D14FAE1DE52200EDD6E250EDF6E010E33
:10291000DBCFE6FFDFCFE6FF14DEE552E5521F0E08
:102920006B14FDE1040E6D14FAE16B841F0E6B1441
:10293000FDE1040E6D14FAE11F0E6B14FDE1040EAF
:102940006D14FAE16B801F0E6B14FDE1040E6D1423
:10295000FAE1DE52040EDD6E260EDF6E010EDBCFD5
:10296000E6FFDFCFE6FFEDDDE552E5521F0E6B140B
:10297000FDE1040E6D14FAE16B841F0E6B14FDE192
:10298000040E6D14FAE11F0E6B14FDE1040E6D14BC
:10299000FAE16B801F0E6B14FDE1040E6D14FAE179
:1029A000DE527F0EDD6E270EDF6E010EDBCFE6FFFF
:1029B000DFCFE6FFC6DDE552E5521F0E6B14FDE1E9
:1029C000040E6D14FAE16B841F0E6B14FDE1040E0E
:1029D0006D14FAE11F0E6B14FDE1040E6D14FAE1A3
:1029E0006B801F0E6B14FDE1040E6D14FAE1DE52D4
:1029F0007F0EDD6E280EDF6E010EDBCFE6FFDFCF30
:102A0000E6FF9FDDE552E5521F0E6B14FDE1040E5B
:102A10006D14FAE16B841F0E6B14FDE1040E6D144E
:102A2000FAE11F0E6B14FDE1040E6D14FAE16B80E8
:102A30001F0E6B14FDE1040E6D14FAE1DE52020E5E
:102A4000DD6E210EDF6E010EDBCFE6FFDFCFE6FF8E
:102A500078DDE552E5521F0E6B14FDE1040E6D1496
:102A6000FAE16B841F0E6B14FDE1040E6D14FAE1A4
:102A70001F0E6B14FDE1040E6D14FAE16B801F0E46
:102A80006B14FDE1040E6D14FAE1010EDB6A0E0E0B
:102A9000DF6E010EDBCFE6FFDFCFE6FF52DDE55252
:102AA000E5521F0E6B14FDE1040E6D14FAE16B8408
:102AB0001F0E6B14FDE1040E6D14FAE11F0E6B1472
:102AC000FDE1040E6D14FAE16B801F0E6B14FDE145
:102AD000040E6D14FAE1DE52090EDD6E2D0EDF6E6E
:102AE000010EDBCFE6FFDFCFE6FF2BDDE552E5523F
:102AF0001F0E6B14FDE1040E6D14FAE16B841F0EC2
:102B00006B14FDE1040E6D14FAE16B801F0E6B1463
:102B1000FDE1040E6D14FAE1DE52010EDD6E2E0EA3
:102B2000DF6E010EDBCFE6FFDFCFE6FF0ADDE55209
:102B3000E5521F0E6B14FDE1040E6D14FAE16B8477
:102B40001F0E6B14FDE1040E6D14FAE11F0E6B14E1
:102B5000FDE1040E6D14FAE16B801F0E6B14FDE1B4
:102B6000040E6D14FAE1DE52020EDD6E2C0EDF6EE5
:102B7000010EDBCFE6FFDFCFE6FFE3DCE552E552F7
:102B80001F0E6B14FDE1040E6D14FAE16B841F0E31
:102B90006B14FDE1040E6D14FAE16B801F0E6B14D3
:102BA000FDE1040E6D14FAE1DE52010EDD6E2A0E17
:102BB000DF6E010EDBCFE6FFDFCFE6FFC2DCE552C2
:102BC000E5521F0E6B14FDE1040E6D14FAE16B84E7
:102BD0001F0E6B14FDE1040E6D14FAE16B801F0EE5
:102BE0006B14FDE1040E6D14FAE1938293840F01DE
:102BF0004B6B838E020EE15C02E2E16AE552E16E0C
:0E2C0000E552E7CFD9FF12000F013C51120040
:022C0E009682AC
:102C1000968084928490968E1200D9CFE6FFE1CF01
:102C2000D9FFFE0EDB50640802E2020E31D0000133
:102C3000606BFE0EDB50020DFE0EF3CFDBFFFD0ED0
:102C4000DB5004E0FE0EDB50010903D0FE0EDB502A
:102C5000FE0BE76EFE0EE7CFDBFF6051040DF3CFF6
:102C600060F0FC0EDB5005E0020E6011606FFE0E9E
:102C700001D0FC0E6015606FFB0EDBCFE6FFFE0E91
:102C8000DBCFE6FF60C0E6FF08DBE552E552E55228
:102C9000E552E7CFD9FF1200D9CFE6FFE1CFD9FF48
:102CA000FE0EDB50640802E2020E40D00001010E6D
:102CB000616FFE0EDB50020DFE0EF3CFDBFFFD0E4B
:102CC000DB5004E0FE0EDB50010903D0FE0EDB50AA
:102CD000FE0BE76EFE0EE7CFDBFF6151040DF3CF75
:102CE00061F0FB0EDB500AE0FC0EDB5002E0030E4D
:102CF0000CD0020E6111616FFE0E0AD0FC0EDB508B
:102D000006E0FD0E6115616F010E611102D0FC0E2F
:102D10006115616FFA0EDBCFE6FFFE0EDBCFE6FF3B
:102D200061C0E6FFBADAE552E552E552E552E7CF77
:102D3000D9FF1200D9CFE6FFE1CFD9FFFE0EDB505D
:102D400064080DE3FC0EDB0403E0FC0EDB5007E13E
:102D5000FA0EDB5006E1F90EDB50640802E2020EC7
:102D600044D00001020E626FFE0EDB50020DFE0E1B
:102D7000F3CFDBFFFD0EDB5004E0FE0EDB5001095C
:102D800003D0FE0EDB50FE0BE76EFE0EE7CFDBFF3F
:102D90006251040DF3CF62F0FA0EDB500AE0FB0E35
:102DA000DB5002E0030E0CD0020E6211626FFE0EC9
:102DB0000AD0FB0EDB5006E0FD0E6215626F010EBD
:102DC000621102D0FC0E6215626FF90EDBCFE6FFD6
:102DD000FC0EDBCFE6FFFE0EDBCFE6FF62C0E6FFB8
:102DE0009EDAE552E552E552E552E552E7CFD9FFCA
:102DF0001200D9CFE6FFE1CFD9FFFE0EDB50640809
:102E000019E3FC0EDBCFE6FFFE0EDB50E552E724B4
:102E1000640810E3FE0EDBCFE6FFFC0EDB50E5524C
:102E2000E75C146E156A153407E214509C08000E16
:102E3000155402E2020E44D00001030E636FFE0E31
:102E4000DB50020DFE0EF3CFDBFFFD0EDB5004E086
:102E5000FE0EDB50010903D0FE0EDB50FE0BE76EC9
:102E6000FE0EE7CFDBFF6351040DF3CF63F0FA0EE4
:102E7000DB500AE0FB0EDB5002E0030E0CD0020E2A
:102E80006311636FFE0E0AD0FB0EDB5006E0FD0EF1
:102E90006315636F010E631102D0FC0E6315636F3F
:102EA000F90EDBCFE6FFFC0EDBCFE6FFFE0EDBCF3D
:102EB000E6FF63C0E6FF33DAE552E552E552E5523C
:102EC000E552E7CFD9FF12000001040EE850040DCF
:102ED000FC0EF314646FE66EB2D9E5521200D9CF3E
:102EE000E6FFE1CFD9FFFE0EDB50F009E76EFE0EE4
:102EF000E7CFDBFFFE0EDBCFE6FFA1D9E552E552BF
:102F0000E7CFD9FF1200D9CFE6FFE1CFD9FFFE0E00
:102F1000DB508009E76EFE0EE7CFDBFFFE0EDBCF56
:102F2000E6FF8DD9E552000923E100010A0E676F23
:102F3000675100081DE227D8110EE66E26D9E5522A
:102F400029D80001656FE85006E02ED80001670718
:102F5000010E666FEDD72BD80001686F65D927D8B1
:102F60000001696F67D920D80001676B666BE0D7F5
:102F7000680E146E000E156E14C0F3FFF46EE55269
:102F8000E7CFD9FF12009682968084929692849021
:102F9000969012009682968084A203D09692969084
:102FA000010C96929690000C968096821200D9CFD2
:102FB000E6FFE1CFD9FF030EE126020EDB6A96821F
:102FC000DE6ADD6ADECF14F0DDCF15F0153404E2E1
:102FD00014500708000E155401E2C7D0968084A053
:102FE000FED7D9CFE9FFDACFEAFFEE50ED100FE1BF
:102FF00084A204D0020EDB50800903D0020EDB5005
:103000007F0BE76E020EE7CFDBFF84909690D9CF5F
:10301000E9FFDACFEAFF010EEE1811E1ED500FE102
:1030200084A204D0020EDB50400903D0020EDB5014
:10303000BF0BE76E020EE7CFDBFF84909690D9CFEF
:10304000E9FFDACFEAFF020EEE1811E1ED500FE1D1
:1030500084A204D0020EDB50200903D0020EDB5004
:10306000DF0BE76E020EE7CFDBFF84909690D9CF9F
:10307000E9FFDACFEAFF030EEE1811E1ED500FE1A0
:1030800084A204D0020EDB50100903D0020EDB50E4
:10309000EF0BE76E020EE7CFDBFF84909690D9CF5F
:1030A000E9FFDACFEAFF040EEE1811E1ED500FE16F
:1030B00084A204D0020EDB50080903D0020EDB50BC
:1030C000F70BE76E020EE7CFDBFF84909690D9CF27
:1030D000E9FFDACFEAFF050EEE1811E1ED500FE13E
:1030E00084A204D0020EDB50040903D0020EDB5090
:1030F000FB0BE76E020EE7CFDBFF84909690D9CFF3
:10310000E9FFDACFEAFF060EEE1811E1ED500FE10C
:1031100084A204D0020EDB50020903D0020EDB5061
:10312000FD0BE76E020EE7CFDBFF84909690D9CFC0
:10313000E9FFDACFEAFF070EEE1811E1ED500FE1DB
:1031400084A204D0020EDB50010903D0020EDB5032
:10315000FE0BE76E020EE7CFDBFF84909690DF2A2E
:10316000010E01E22FD7DB2A2DD784929692020E10
:10317000DB50146E030EE15C02E2E16AE552E16E9F
:103180001450E552E7CFD9FF1200D9CFE6FFE1CFC7
:10319000D9FF020EE126DE6ADD6ADECF14F0DDCF54
:1031A00015F0153404E214500708000E155432E3EC
:1031B000FE0EDB50DF5206E0DFCFF3FFE846FE0BEA
:1031C000F306FCE17F09FF0810E19682968000007B
:1031D00000000000000000000000969000000000C9
:1031E000000000000000000010D0849296929680AB
:1031F00000000000000000000000000096900000A9
:1032000000000000000000000000DF2A010E01E3C2
:10321000DB2AC3D7020EE15C02E2E16AE552E16E0D
:10322000E552E7CFD9FF120084929692968096904D
:103230009682120096829680969096821200D9CF3E
:10324000E6FFE1CFD9FF00010A0E6C6F6C51000858
:103250001FE299DE100EE66E98DFE5529BDE00015C
:103260006A6FE8500AE1FE0EDBCFE6FF8EDFE55223
:1032700091DE00016A6FE85006E096DE00016C07FF
:10328000010E6B6FE3D790DE00016C6B6B6BDED7CA
:103290006B51E552E7CFD9FF1200D9CFE6FFE1CF5E
:1032A000D9FF00010A0E6F6F6F51000833E26BDE29
:1032B000100EE66E6ADFE5526DDE00016D6FE850BC
:1032C0001EE1FE0EDBCFE6FF60DFE55263DE0001AC
:1032D0006D6FE85014E1FD0EDBCFE6FF56DFE552DF
:1032E00059DE00016D6FE8500AE1FC0EDBCFE6FF0E
:1032F0004CDFE5524FDE00016D6FE85006E054DE12
:1033000000016F07010E6E6FCFD74EDE00016F6BAD
:103310006E6BCAD76E51E552E7CFD9FF1200D9CFF5
:10332000E6FFE1CFD9FF00010A0E726F725100086B
:103330003DE229DE100EE66E28DFE5522BDE0001AD
:10334000706FE85028E1FE0EDBCFE6FF1EDFE5528E
:1033500021DE0001706FE8501EE1FD0EDBCFE6FFBD
:1033600014DFE55217DE0001706FE85014E1FC0E27
:10337000DBCFE6FF0ADFE5520DDE0001706FE8509B
:103380000AE1FB0EDBCFE6FF00DFE55203DE0001C2
:10339000706FE85006E008DE00017207010E716FE1
:1033A000C5D702DE0001726B716BC0D77151E55257
:0633B000E7CFD9FF120077
:0A33B60094969488949A979499983D
:1033C0009380C00EC76E200EC66EC56A1200F29EB4
:1033D000F19C8180F288F28CF28E1200D9CFE6FF48
:1033E000E1CFD9FFF2AE04D00F01010E1D6F02D064
:1033F0000F011D6BF29E94969488949A97949998D5
:10340000938087988594300EE66E35DBE552E6684A
:1034100032DBE552C20EE66E2EDBE552C20EE66EE0
:103420002ADBE552C20EE66E26DBE552C20EE66EE0
:1034300022DBE552858485942A0EE66E1CDBE5527C
:10344000E66819DBE552C20EE66E15DBE552C20EE8
:10345000E66E11DBE552C20EE66E0DDBE552C20EE2
:10346000E66E09DBE552858485942B0EE66E03DB60
:10347000E552FD0EDBCFE6FFFEDAE552C20EE66E48
:10348000FADAE552C20EE66EF6DAE552C20EE66EE2
:10349000F2DAE552C20EE66EEEDAE55285848594E4
:1034A0002C0EE66EE8DAE552E66AE5DAE552858446
:1034B0008594210EE66EDFDAE552070EE66EDBDA62
:1034C000E55285848594220EE66ED5DAE552070E24
:1034D000E66ED1DAE55285848594230EE66ECBDA6A
:1034E000E552030EE66EC7DAE55285848594240E14
:1034F000E66EC1DAE5520A0EE66EBDDAE552858463
:103500008594260EE66EB7DAE5520F0EE66EB3DA54
:10351000E55285848594270EE66EADDAE552700E8D
:10352000E66EA9DAE55285848594310EE66EA3DA5B
:10353000E552010EE66E9FDAE55285848594320EDF
:10354000E66E99DAE5520A0EE66E95DAE552858462
:103550008594330EE66E8FDAE5520A0EE66E8BDA4C
:10356000E55285848594250EE66E85DAE552FE0ED9
:10357000DBCFE6FF80DAE55285848594050EE66EA2
:103580007ADAE552E66A84DAE5520F011C6F858427
:10359000FE0EDB501C5D07E01D51E8B0F28EE8A086
:1035A000F29E000E06D01D51E8B0F28EE8A0F29E09
:1035B000010EE552E7CFD9FF1200F2AE04D00F01A1
:1035C000010E1F6F02D00F011F6BF29E879885942A
:1035D000200EE66E50DAE5520F0EE66E4CDAE5523A
:1035E00085848594E66A47DAE552E66A51DAE5525F
:1035F0000F011E6F8584C80EE66E6CEC1FF0E5525D
:1036000087880F0EE66E6CEC1FF0E552F2920F0EFB
:103610000F011E5D06E01F51E8B0F28EE8A0F29E99
:10362000000C1F51E8B0F28EE8A0F29E010CF2AE41
:1036300004D00F01010E216F02D00F01216BF29E09
:1036400087988594200EE66E16DAE5520C0EE66E2B
:1036500012DAE55285840F013A2B000E3B23859444
:10366000E66A09DAE552E66A13DAE5520F01206FDD
:103670008584F2920C0E205D06E02151E8B0F28EB6
:10368000E8A0F29E000C2151E8B0F28EE8A0F29E74
:10369000010CD9CFE6FFE1CFD9FF020EE126F2AE51
:1036A00004D00F01010E2B6F02D00F012B6BF29E85
:1036B00087988594270EE66EDED9E552700EE66E89
:1036C000DAD9E55285848594220EE66ED4D9E55286
:1036D000010EE66ED0D9E55285848594300EE66EF3
:1036E000CAD9E552FE0EDBCFE6FFC5D9E552C20EC0
:1036F000E66EC1D9E552C20EE66EBDD9E552C20EE4
:10370000E66EB9D9E552C20EE66EB5D9E5528584AA
:1037100085942A0EE66EAFD9E552FE0EDBCFE6FFAA
:10372000AAD9E552C20EE66EA6D9E552C20EE66EE1
:10373000A2D9E552C20EE66E9ED9E552C20EE66EE1
:103740009AD9E552858485940B0EE66E94D9E5529C
:10375000E66A9ED9E5520F012A6FE66A99D9E552C9
:10376000E66A96D9E552E66A93D9E552E66A90D9B7
:10377000E55285848594A00EE66E7DD9E5520F0151
:103780001A2BDF6A080EDF5C19E2DF50E76EFC0ED1
:10379000DBCFE9FFFD0EDBCFEAFFE750E926000EA5
:1037A000EA22EF50E66EDF50EA6A220FE96E0F0E52
:1037B000EA22E552E750EF6EDF2AE4D71ACFE6FFA0
:1037C0005AD9E5522ACFE6FF56D9E552DF6A080EEC
:1037D000DF5C0CE2DF50EA6A220FE96E0F0EEA228C
:1037E000EF50E66E48D9E552DF2AF1D785848594FB
:1037F000200EE66E40D9E5520E0EE66E3CD9E5523B
:1038000085848788010EE66E6CEC1FF0E55200009F
:10381000000085940F012C6B2D6B81A00DD00F0142
:103820002C2B000E2D23F40E0F012C1902E1010E9A
:103830002D1901E101D0F1D78594270EE66E28D924
:10384000E552E76E010EE7CFDBFF700EE66E13D98F
:10385000E55285848594220EE66E0DD9E552070E59
:10386000E66E09D9E55285848594E10EE66E03D9AA
:10387000E55285848594200EE66EFDD8E5520F0E44
:10388000E66EF9D8E552858487880F0EE66E6CECFB
:103890001FF0E552F292F40E0F012C1902E1010E15
:1038A0002D1904E00F012C512D1108E10F012B51AE
:1038B000E8B0F28EE8A0F29E020E19D0010EDB50A5
:1038C000100B0DE1010EDB50200B09E00F012B5115
:1038D000E8B0F28EE8A0F29E000E09D008D00F01E9
:1038E0002B51E8B0F28EE8A0F29E010E00D0146ECB
:1038F000020EE15C02E2E16AE552E16E1450E5522B
:10390000E7CFD9FF1200D9CFE6FFE1CFD9FF030EF1
:10391000E126F2A805D00F01010E2E6FF29E02D013
:103920000F012E6BF2AE03D0010E2F6F01D02F6B63
:103930008594170EE66E9FD8E552E66AA9D8E5523F
:10394000E76E010EE7CFDBFF85848150010B0CE0B1
:10395000010EDB50010B08E00F012E0501E1F2889A
:103960002F051AE1F28E18D08594070EE66E90D8D6
:10397000E552E76E020EE7CFDBFF85848150010B35
:103980000DE1020EDB50000B09E00F012E0501E1F5
:10399000F2882F0501E1F28E020E61D0F292859439
:1039A000610EE66E68D8E552E66A72D8E5520F01FC
:1039B0001B6FE66A6DD8E552E66EFD0EDBCFE9FFC0
:1039C000FE0EDBCFEAFFE552E750EF6EDF6A080E2E
:1039D000DF5C15E2E66A5CD8E552E66EDF50E76E22
:1039E000FB0EDBCFE9FFFC0EDBCFEAFFE750E92659
:1039F000000EEA22E552E750EF6EDF2AE8D7858411
:103A00008594270EE66E44D8E552E76E020EE7CFA6
:103A1000DBFF700EE66E2FD8E55285848594170E75
:103A2000E66E29D8E552E66A33D8E552E76E010E14
:103A3000E7CFDBFF8584DB50000B09E00F012E058B
:103A400001E1F2882F0501E1F28E010E08D00F018D
:103A50002E0501E1F2882F0501E1F28E000E146EB1
:103A6000030EE15C02E2E16AE552E16E1450E552B8
:103A7000E7CFD9FF1200D9CFE6FFE1CFD9FFFE0E85
:103A8000DB50C96EC7A0FED7E552E7CFD9FF1200C1
:103A9000D9CFE6FFE1CFD9FFFE0EDB50C96EC7A03C
:0C3AA000FED7C950E552E7CFD9FF120055
:043AAC00998A998CCE
:103AB0001200D9CFE6FFE1CFD9FFE652DF6AE66A0E
:103AC000800EE66E740EE66E410EE66E3CEC1EF065
:103AD000E552E552E552E55281EC1FF077EC1FF01C
:103AE0000009FCE1C450DF6EDF50146E156AD890F7
:103AF000155004E6A20E145C000E15581EE2DF50AD
:103B0000146E156A153417E214508408000E15540B
:103B100012E2DF50146E156A840E145E000E155A00
:103B2000030E1502F3CF15F01402F3CF14F0F45086
:103B30001526F35003D0DF6A02D0640EDF6E7DECF1
:0E3B40001FF0DF50E552E552E7CFD9FF12002B
:023B4E002A0E3D
:103B5000F66E100EF76E000EF86E0F010900F550AC
:103B6000356F0900F550366F03E1356701D03DD060
:103B70000900F550306F0900F550316F0900F5501C
:103B8000326F09000900F550E96E0900F550EA6E40
:103B9000090009000900F550336F0900F550346F32
:103BA00009000900F6CF37FFF7CF38FFF8CF39FF0C
:103BB00030CFF6FF31CFF7FF32CFF8FF0F0133538D
:103BC00002E1345307E00900F550EE6E3307F8E2E6
:103BD0003407F9D737CFF6FF38CFF7FF39CFF8FFE3
:0C3BE0000F013507000E365BBFD7120046
:043BEC00939612009A
:103BF000D9CFE6FFE1CFD9FFFC0EDB50020805E18B
:103C0000FD0EDB5002E1000E33D0FE0EDB50CB6E1A
:103C1000FE0EDB50FE0BE76EFE0EE7CFDBFFDB4058
:103C20007F0BB76E8196CA84CA80CA82FC0EDB0401
:103C300004E0FC0EDB50020802E13F0EB66EFD0E02
:103C4000DB5000080CE2FC0EDB50020808E10A0E13
:103C5000E66E11EC1FF0E552FD0EDB06F0D7FC0E10
:103C6000DB50020803E0FC0EDB5001E1B66A010EF6
:083C7000E552E7CFD9FF120075
:083C7800D9CFE6FFDACFE6FF29
:103C8000E1CFD9FFE2CFDAFFC098C26AC16AFC0E69
:103C9000DB50400DF350C00B146EFC0EDB407F0B6D
:103CA0003C0B1410C26EFD0EDB50040DF350380BAC
:103CB000156EFD0EDB380F0B070B146EFD0EDB507F
:103CC000800B14101510C16EC088FA0EDB50C16E47
:103CD000FA0EDBCF14F0FB0EDBCF15F015C014F09D
:103CE000156A1450C26EC098FC0EDBAE03D09E9CC9
:103CF0009D8CF28CC280E552E5CFDAFFE7CFD9FF89
:023D00001200AF
:0E3D0200006A0EAE8AEF1EF00D6C0E1EE86A0F
:103D10000E22001E09AE92EF1EF0086C091EE86A22
:103D20000922001E28EC1FF009BEA2EF1EF000AE13
:103D3000000C086C091EE86A0922046C051EE86A7A
:103D40000522000C00BE99EF1EF00188FF0C08C090
:103D500012F008500D02F4CF07F0F3CF06F009502F
:103D60000E02F4CF09F0F3CF08F00D02F35007264E
:103D7000F4500822E86A092212500E02F350072676
:0A3D8000F4500822E86A0922000C42
:063D8A00998E1200D9CF52
:103D9000E6FFE1CFD9FFE652DF6AE66A800EE66E03
:103DA0007C0EE66E410EE66E3CEC1EF0E552E552EE
:103DB000E552E55281EC1FF077EC1FF00009FCE1C1
:103DC000C450DF6E7DEC1FF0DF50E552E552E7CFC7
:103DD000D9FF1200C088C168C268C0988750800BA4
:063DE00001E0010E1200DB
:0A3DE600776A0F014B6BD26AD16AB5
:103DF000C098C26A230EC16EC088C168C268C098EC
:103E00009B9C53EC0AF028EC08F0B2EC0AF0F6ECBC
:103E10001DF0C5EC1EF056EC1DF05DEC09F090EFC6
:023E200013F09D
:0E3E2200FF0EE350196EEF0E01D0F30EE76EA7
:103E3000E72E18EF1FF00C0E186EE76AE72E1EEF44
:103E40001FF0182E1DEF1FF0192E16EF1FF0120095
:103E5000056A046A100EE76ED890083609360436F3
:103E600005360D50045C0E50055805E30D50045EF8
:0C3E70000E50055A082AE72EF0D7120069
:043E7C00FF0EE35002
:103E8000196E480E01D04C0EE76EE72EFED7E76A9A
:0C3E9000E72EFED7192EF7D70000120015
:043E9C00400EF36E73
:103EA00000EE00F00F0E01D81200EA6002D0EE6AB8
:0C3EB000FCD7F350E9601200EE6AFCD76A
:043EBC001EEE00F006
:103EC0002EEE00F0F86A019CA7EC1DF0FFEC0AF062
:083ED0001AEC0DF0FBD7120003
:083ED800FF0EE350E84E12005A
:0E3EE000000000D000D000D0E82EFAD712006B
:023EEE00C0987A
:0A3EF000C250020B01E0010E1200A7
:063EFA00C098C2909D9CDF
:023F00001200AD
:063F0200C098C28212000B
:083F08003214146414000000DF
:023F1000FA00B5
:023F12000000AD
:020000040001F9
:01FFF800AB5D
:01FFF900F512
:01FFFA000501
:01FFFB00F80D
:01FFFC00E024
:01FFFD00F40F
:00000001FF
